{
  "_format": "hh-sol-artifact-1",
  "contractName": "SchoolGradingSystem",
  "sourceName": "contracts/Assessment.sol",
  "abi": [
    {
      "anonymous": false,
      "inputs": [
        {
          "indexed": false,
          "internalType": "uint256",
          "name": "studentId",
          "type": "uint256"
        },
        {
          "indexed": false,
          "internalType": "string",
          "name": "subject",
          "type": "string"
        },
        {
          "indexed": false,
          "internalType": "uint8",
          "name": "grade",
          "type": "uint8"
        }
      ],
      "name": "GradeAssigned",
      "type": "event"
    },
    {
      "anonymous": false,
      "inputs": [
        {
          "indexed": false,
          "internalType": "uint256",
          "name": "studentId",
          "type": "uint256"
        },
        {
          "indexed": false,
          "internalType": "string",
          "name": "name",
          "type": "string"
        }
      ],
      "name": "StudentAdded",
      "type": "event"
    },
    {
      "inputs": [
        {
          "internalType": "string",
          "name": "name",
          "type": "string"
        }
      ],
      "name": "addStudent",
      "outputs": [],
      "stateMutability": "nonpayable",
      "type": "function"
    },
    {
      "inputs": [
        {
          "internalType": "uint256",
          "name": "studentId",
          "type": "uint256"
        },
        {
          "internalType": "string",
          "name": "subject",
          "type": "string"
        },
        {
          "internalType": "uint8",
          "name": "grade",
          "type": "uint8"
        }
      ],
      "name": "assignGrade",
      "outputs": [],
      "stateMutability": "nonpayable",
      "type": "function"
    },
    {
      "inputs": [
        {
          "internalType": "uint256",
          "name": "studentId",
          "type": "uint256"
        },
        {
          "internalType": "string",
          "name": "subject",
          "type": "string"
        }
      ],
      "name": "getGrade",
      "outputs": [
        {
          "internalType": "uint8",
          "name": "",
          "type": "uint8"
        }
      ],
      "stateMutability": "view",
      "type": "function"
    },
    {
      "inputs": [
        {
          "internalType": "uint256",
          "name": "studentId",
          "type": "uint256"
        }
      ],
      "name": "getStudentName",
      "outputs": [
        {
          "internalType": "string",
          "name": "",
          "type": "string"
        }
      ],
      "stateMutability": "view",
      "type": "function"
    },
    {
      "inputs": [],
      "name": "nextStudentId",
      "outputs": [
        {
          "internalType": "uint256",
          "name": "",
          "type": "uint256"
        }
      ],
      "stateMutability": "view",
      "type": "function"
    },
    {
      "inputs": [
        {
          "internalType": "uint256",
          "name": "",
          "type": "uint256"
        }
      ],
      "name": "students",
      "outputs": [
        {
          "internalType": "uint256",
          "name": "id",
          "type": "uint256"
        },
        {
          "internalType": "string",
          "name": "name",
          "type": "string"
        }
      ],
      "stateMutability": "view",
      "type": "function"
    }
  ],
  "bytecode": "0x60806040526001805534801561001457600080fd5b50610e7c806100246000396000f3fe608060405234801561001057600080fd5b50600436106100625760003560e01c806306ead22e1461006757806341caac4d14610098578063453e056a146100b457806350abc9ea146100d05780639ac4387614610100578063a8ca251b14610130575b600080fd5b610081600480360381019061007c91906105a3565b61014e565b60405161008f92919061066f565b60405180910390f35b6100b260048036038101906100ad919061080d565b6101fa565b005b6100ce60048036038101906100c9919061087c565b61032b565b005b6100ea60048036038101906100e591906108c5565b6103c4565b6040516100f79190610930565b60405180910390f35b61011a600480360381019061011591906105a3565b61045c565b604051610127919061094b565b60405180910390f35b610138610553565b604051610145919061096d565b60405180910390f35b6000602052806000526040600020600091509050806000015490806001018054610177906109b7565b80601f01602080910402602001604051908101604052809291908181526020018280546101a3906109b7565b80156101f05780601f106101c5576101008083540402835291602001916101f0565b820191906000526020600020905b8154815290600101906020018083116101d357829003601f168201915b5050505050905082565b60008311801561020b575060015483105b61024a576040517f08c379a000000000000000000000000000000000000000000000000000000000815260040161024190610a34565b60405180910390fd5b60008160ff1610158015610262575060648160ff1611155b6102a1576040517f08c379a000000000000000000000000000000000000000000000000000000000815260040161029890610aa0565b60405180910390fd5b80600080858152602001908152602001600020600201836040516102c59190610afc565b908152602001604051809103902060006101000a81548160ff021916908360ff1602179055507fcea5c96eaf97fefc70e6769e20cd31f3b9f57cbad0da7e3476a1277421ffedd283838360405161031e93929190610b13565b60405180910390a1505050565b600154600080600154815260200190815260200160002060000181905550806000806001548152602001908152602001600020600101908161036d9190610cfd565b507f9682c9a3e9734a1f8d3a641838a5d7862f4eb29fcbf4bd04e0ccac28ffcfd227600154826040516103a192919061066f565b60405180910390a1600160008154809291906103bc90610dfe565b919050555050565b600080831180156103d6575060015483105b610415576040517f08c379a000000000000000000000000000000000000000000000000000000000815260040161040c90610a34565b60405180910390fd5b600080848152602001908152602001600020600201826040516104389190610afc565b908152602001604051809103902060009054906101000a900460ff16905092915050565b606060008211801561046f575060015482105b6104ae576040517f08c379a00000000000000000000000000000000000000000000000000000000081526004016104a590610a34565b60405180910390fd5b60008083815260200190815260200160002060010180546104ce906109b7565b80601f01602080910402602001604051908101604052809291908181526020018280546104fa906109b7565b80156105475780601f1061051c57610100808354040283529160200191610547565b820191906000526020600020905b81548152906001019060200180831161052a57829003601f168201915b50505050509050919050565b60015481565b6000604051905090565b600080fd5b600080fd5b6000819050919050565b6105808161056d565b811461058b57600080fd5b50565b60008135905061059d81610577565b92915050565b6000602082840312156105b9576105b8610563565b5b60006105c78482850161058e565b91505092915050565b6105d98161056d565b82525050565b600081519050919050565b600082825260208201905092915050565b60005b838110156106195780820151818401526020810190506105fe565b60008484015250505050565b6000601f19601f8301169050919050565b6000610641826105df565b61064b81856105ea565b935061065b8185602086016105fb565b61066481610625565b840191505092915050565b600060408201905061068460008301856105d0565b81810360208301526106968184610636565b90509392505050565b600080fd5b600080fd5b7f4e487b7100000000000000000000000000000000000000000000000000000000600052604160045260246000fd5b6106e182610625565b810181811067ffffffffffffffff82111715610700576106ff6106a9565b5b80604052505050565b6000610713610559565b905061071f82826106d8565b919050565b600067ffffffffffffffff82111561073f5761073e6106a9565b5b61074882610625565b9050602081019050919050565b82818337600083830152505050565b600061077761077284610724565b610709565b905082815260208101848484011115610793576107926106a4565b5b61079e848285610755565b509392505050565b600082601f8301126107bb576107ba61069f565b5b81356107cb848260208601610764565b91505092915050565b600060ff82169050919050565b6107ea816107d4565b81146107f557600080fd5b50565b600081359050610807816107e1565b92915050565b60008060006060848603121561082657610825610563565b5b60006108348682870161058e565b935050602084013567ffffffffffffffff81111561085557610854610568565b5b610861868287016107a6565b9250506040610872868287016107f8565b9150509250925092565b60006020828403121561089257610891610563565b5b600082013567ffffffffffffffff8111156108b0576108af610568565b5b6108bc848285016107a6565b91505092915050565b600080604083850312156108dc576108db610563565b5b60006108ea8582860161058e565b925050602083013567ffffffffffffffff81111561090b5761090a610568565b5b610917858286016107a6565b9150509250929050565b61092a816107d4565b82525050565b60006020820190506109456000830184610921565b92915050565b600060208201905081810360008301526109658184610636565b905092915050565b600060208201905061098260008301846105d0565b92915050565b7f4e487b7100000000000000000000000000000000000000000000000000000000600052602260045260246000fd5b600060028204905060018216806109cf57607f821691505b6020821081036109e2576109e1610988565b5b50919050565b7f496e76616c69642073747564656e742049440000000000000000000000000000600082015250565b6000610a1e6012836105ea565b9150610a29826109e8565b602082019050919050565b60006020820190508181036000830152610a4d81610a11565b9050919050565b7f496e76616c696420677261646500000000000000000000000000000000000000600082015250565b6000610a8a600d836105ea565b9150610a9582610a54565b602082019050919050565b60006020820190508181036000830152610ab981610a7d565b9050919050565b600081905092915050565b6000610ad6826105df565b610ae08185610ac0565b9350610af08185602086016105fb565b80840191505092915050565b6000610b088284610acb565b915081905092915050565b6000606082019050610b2860008301866105d0565b8181036020830152610b3a8185610636565b9050610b496040830184610921565b949350505050565b60008190508160005260206000209050919050565b60006020601f8301049050919050565b600082821b905092915050565b600060088302610bb37fffffffffffffffffffffffffffffffffffffffffffffffffffffffffffffffff82610b76565b610bbd8683610b76565b95508019841693508086168417925050509392505050565b6000819050919050565b6000610bfa610bf5610bf08461056d565b610bd5565b61056d565b9050919050565b6000819050919050565b610c1483610bdf565b610c28610c2082610c01565b848454610b83565b825550505050565b600090565b610c3d610c30565b610c48818484610c0b565b505050565b5b81811015610c6c57610c61600082610c35565b600181019050610c4e565b5050565b601f821115610cb157610c8281610b51565b610c8b84610b66565b81016020851015610c9a578190505b610cae610ca685610b66565b830182610c4d565b50505b505050565b600082821c905092915050565b6000610cd460001984600802610cb6565b1980831691505092915050565b6000610ced8383610cc3565b9150826002028217905092915050565b610d06826105df565b67ffffffffffffffff811115610d1f57610d1e6106a9565b5b610d2982546109b7565b610d34828285610c70565b600060209050601f831160018114610d675760008415610d55578287015190505b610d5f8582610ce1565b865550610dc7565b601f198416610d7586610b51565b60005b82811015610d9d57848901518255600182019150602085019450602081019050610d78565b86831015610dba5784890151610db6601f891682610cc3565b8355505b6001600288020188555050505b505050505050565b7f4e487b7100000000000000000000000000000000000000000000000000000000600052601160045260246000fd5b6000610e098261056d565b91507fffffffffffffffffffffffffffffffffffffffffffffffffffffffffffffffff8203610e3b57610e3a610dcf565b5b60018201905091905056fea26469706673582212202987a789970118d9ba56d0f5b1fd1206f9d8d16002bd3db09b0257ec3610e6a664736f6c63430008110033",
  "linkReferences": {},
  "deployedLinkReferences": {}
}