{"contracts/Assessment.sol":{"SchoolGradingSystem":{"abi":[{"anonymous":false,"inputs":[{"indexed":false,"internalType":"uint256","name":"studentId","type":"uint256"},{"indexed":false,"internalType":"string","name":"subject","type":"string"},{"indexed":false,"internalType":"uint8","name":"grade","type":"uint8"}],"name":"GradeAssigned","type":"event"},{"anonymous":false,"inputs":[{"indexed":false,"internalType":"uint256","name":"studentId","type":"uint256"},{"indexed":false,"internalType":"string","name":"name","type":"string"}],"name":"StudentAdded","type":"event"},{"inputs":[{"internalType":"string","name":"name","type":"string"}],"name":"addStudent","outputs":[],"stateMutability":"nonpayable","type":"function"},{"inputs":[{"internalType":"uint256","name":"studentId","type":"uint256"},{"internalType":"string","name":"subject","type":"string"},{"internalType":"uint8","name":"grade","type":"uint8"}],"name":"assignGrade","outputs":[],"stateMutability":"nonpayable","type":"function"},{"inputs":[{"internalType":"uint256","name":"studentId","type":"uint256"},{"internalType":"string","name":"subject","type":"string"}],"name":"getGrade","outputs":[{"internalType":"uint8","name":"","type":"uint8"}],"stateMutability":"view","type":"function"},{"inputs":[{"internalType":"uint256","name":"studentId","type":"uint256"}],"name":"getStudentName","outputs":[{"internalType":"string","name":"","type":"string"}],"stateMutability":"view","type":"function"},{"inputs":[],"name":"nextStudentId","outputs":[{"internalType":"uint256","name":"","type":"uint256"}],"stateMutability":"view","type":"function"},{"inputs":[{"internalType":"uint256","name":"","type":"uint256"}],"name":"students","outputs":[{"internalType":"uint256","name":"id","type":"uint256"},{"internalType":"string","name":"name","type":"string"}],"stateMutability":"view","type":"function"}],"evm":{"bytecode":{"linkReferences":{},"object":"60806040526001805534801561001457600080fd5b50610e7c806100246000396000f3fe608060405234801561001057600080fd5b50600436106100625760003560e01c806306ead22e1461006757806341caac4d14610098578063453e056a146100b457806350abc9ea146100d05780639ac4387614610100578063a8ca251b14610130575b600080fd5b610081600480360381019061007c91906105a3565b61014e565b60405161008f92919061066f565b60405180910390f35b6100b260048036038101906100ad919061080d565b6101fa565b005b6100ce60048036038101906100c9919061087c565b61032b565b005b6100ea60048036038101906100e591906108c5565b6103c4565b6040516100f79190610930565b60405180910390f35b61011a600480360381019061011591906105a3565b61045c565b604051610127919061094b565b60405180910390f35b610138610553565b604051610145919061096d565b60405180910390f35b6000602052806000526040600020600091509050806000015490806001018054610177906109b7565b80601f01602080910402602001604051908101604052809291908181526020018280546101a3906109b7565b80156101f05780601f106101c5576101008083540402835291602001916101f0565b820191906000526020600020905b8154815290600101906020018083116101d357829003601f168201915b5050505050905082565b60008311801561020b575060015483105b61024a576040517f08c379a000000000000000000000000000000000000000000000000000000000815260040161024190610a34565b60405180910390fd5b60008160ff1610158015610262575060648160ff1611155b6102a1576040517f08c379a000000000000000000000000000000000000000000000000000000000815260040161029890610aa0565b60405180910390fd5b80600080858152602001908152602001600020600201836040516102c59190610afc565b908152602001604051809103902060006101000a81548160ff021916908360ff1602179055507fcea5c96eaf97fefc70e6769e20cd31f3b9f57cbad0da7e3476a1277421ffedd283838360405161031e93929190610b13565b60405180910390a1505050565b600154600080600154815260200190815260200160002060000181905550806000806001548152602001908152602001600020600101908161036d9190610cfd565b507f9682c9a3e9734a1f8d3a641838a5d7862f4eb29fcbf4bd04e0ccac28ffcfd227600154826040516103a192919061066f565b60405180910390a1600160008154809291906103bc90610dfe565b919050555050565b600080831180156103d6575060015483105b610415576040517f08c379a000000000000000000000000000000000000000000000000000000000815260040161040c90610a34565b60405180910390fd5b600080848152602001908152602001600020600201826040516104389190610afc565b908152602001604051809103902060009054906101000a900460ff16905092915050565b606060008211801561046f575060015482105b6104ae576040517f08c379a00000000000000000000000000000000000000000000000000000000081526004016104a590610a34565b60405180910390fd5b60008083815260200190815260200160002060010180546104ce906109b7565b80601f01602080910402602001604051908101604052809291908181526020018280546104fa906109b7565b80156105475780601f1061051c57610100808354040283529160200191610547565b820191906000526020600020905b81548152906001019060200180831161052a57829003601f168201915b50505050509050919050565b60015481565b6000604051905090565b600080fd5b600080fd5b6000819050919050565b6105808161056d565b811461058b57600080fd5b50565b60008135905061059d81610577565b92915050565b6000602082840312156105b9576105b8610563565b5b60006105c78482850161058e565b91505092915050565b6105d98161056d565b82525050565b600081519050919050565b600082825260208201905092915050565b60005b838110156106195780820151818401526020810190506105fe565b60008484015250505050565b6000601f19601f8301169050919050565b6000610641826105df565b61064b81856105ea565b935061065b8185602086016105fb565b61066481610625565b840191505092915050565b600060408201905061068460008301856105d0565b81810360208301526106968184610636565b90509392505050565b600080fd5b600080fd5b7f4e487b7100000000000000000000000000000000000000000000000000000000600052604160045260246000fd5b6106e182610625565b810181811067ffffffffffffffff82111715610700576106ff6106a9565b5b80604052505050565b6000610713610559565b905061071f82826106d8565b919050565b600067ffffffffffffffff82111561073f5761073e6106a9565b5b61074882610625565b9050602081019050919050565b82818337600083830152505050565b600061077761077284610724565b610709565b905082815260208101848484011115610793576107926106a4565b5b61079e848285610755565b509392505050565b600082601f8301126107bb576107ba61069f565b5b81356107cb848260208601610764565b91505092915050565b600060ff82169050919050565b6107ea816107d4565b81146107f557600080fd5b50565b600081359050610807816107e1565b92915050565b60008060006060848603121561082657610825610563565b5b60006108348682870161058e565b935050602084013567ffffffffffffffff81111561085557610854610568565b5b610861868287016107a6565b9250506040610872868287016107f8565b9150509250925092565b60006020828403121561089257610891610563565b5b600082013567ffffffffffffffff8111156108b0576108af610568565b5b6108bc848285016107a6565b91505092915050565b600080604083850312156108dc576108db610563565b5b60006108ea8582860161058e565b925050602083013567ffffffffffffffff81111561090b5761090a610568565b5b610917858286016107a6565b9150509250929050565b61092a816107d4565b82525050565b60006020820190506109456000830184610921565b92915050565b600060208201905081810360008301526109658184610636565b905092915050565b600060208201905061098260008301846105d0565b92915050565b7f4e487b7100000000000000000000000000000000000000000000000000000000600052602260045260246000fd5b600060028204905060018216806109cf57607f821691505b6020821081036109e2576109e1610988565b5b50919050565b7f496e76616c69642073747564656e742049440000000000000000000000000000600082015250565b6000610a1e6012836105ea565b9150610a29826109e8565b602082019050919050565b60006020820190508181036000830152610a4d81610a11565b9050919050565b7f496e76616c696420677261646500000000000000000000000000000000000000600082015250565b6000610a8a600d836105ea565b9150610a9582610a54565b602082019050919050565b60006020820190508181036000830152610ab981610a7d565b9050919050565b600081905092915050565b6000610ad6826105df565b610ae08185610ac0565b9350610af08185602086016105fb565b80840191505092915050565b6000610b088284610acb565b915081905092915050565b6000606082019050610b2860008301866105d0565b8181036020830152610b3a8185610636565b9050610b496040830184610921565b949350505050565b60008190508160005260206000209050919050565b60006020601f8301049050919050565b600082821b905092915050565b600060088302610bb37fffffffffffffffffffffffffffffffffffffffffffffffffffffffffffffffff82610b76565b610bbd8683610b76565b95508019841693508086168417925050509392505050565b6000819050919050565b6000610bfa610bf5610bf08461056d565b610bd5565b61056d565b9050919050565b6000819050919050565b610c1483610bdf565b610c28610c2082610c01565b848454610b83565b825550505050565b600090565b610c3d610c30565b610c48818484610c0b565b505050565b5b81811015610c6c57610c61600082610c35565b600181019050610c4e565b5050565b601f821115610cb157610c8281610b51565b610c8b84610b66565b81016020851015610c9a578190505b610cae610ca685610b66565b830182610c4d565b50505b505050565b600082821c905092915050565b6000610cd460001984600802610cb6565b1980831691505092915050565b6000610ced8383610cc3565b9150826002028217905092915050565b610d06826105df565b67ffffffffffffffff811115610d1f57610d1e6106a9565b5b610d2982546109b7565b610d34828285610c70565b600060209050601f831160018114610d675760008415610d55578287015190505b610d5f8582610ce1565b865550610dc7565b601f198416610d7586610b51565b60005b82811015610d9d57848901518255600182019150602085019450602081019050610d78565b86831015610dba5784890151610db6601f891682610cc3565b8355505b6001600288020188555050505b505050505050565b7f4e487b7100000000000000000000000000000000000000000000000000000000600052601160045260246000fd5b6000610e098261056d565b91507fffffffffffffffffffffffffffffffffffffffffffffffffffffffffffffffff8203610e3b57610e3a610dcf565b5b60018201905091905056fea26469706673582212202987a789970118d9ba56d0f5b1fd1206f9d8d16002bd3db09b0257ec3610e6a664736f6c63430008110033","opcodes":"PUSH1 0x80 PUSH1 0x40 MSTORE PUSH1 0x1 DUP1 SSTORE CALLVALUE DUP1 ISZERO PUSH2 0x14 JUMPI PUSH1 0x0 DUP1 REVERT JUMPDEST POP PUSH2 0xE7C DUP1 PUSH2 0x24 PUSH1 0x0 CODECOPY PUSH1 0x0 RETURN INVALID PUSH1 0x80 PUSH1 0x40 MSTORE CALLVALUE DUP1 ISZERO PUSH2 0x10 JUMPI PUSH1 0x0 DUP1 REVERT JUMPDEST POP PUSH1 0x4 CALLDATASIZE LT PUSH2 0x62 JUMPI PUSH1 0x0 CALLDATALOAD PUSH1 0xE0 SHR DUP1 PUSH4 0x6EAD22E EQ PUSH2 0x67 JUMPI DUP1 PUSH4 0x41CAAC4D EQ PUSH2 0x98 JUMPI DUP1 PUSH4 0x453E056A EQ PUSH2 0xB4 JUMPI DUP1 PUSH4 0x50ABC9EA EQ PUSH2 0xD0 JUMPI DUP1 PUSH4 0x9AC43876 EQ PUSH2 0x100 JUMPI DUP1 PUSH4 0xA8CA251B EQ PUSH2 0x130 JUMPI JUMPDEST PUSH1 0x0 DUP1 REVERT JUMPDEST PUSH2 0x81 PUSH1 0x4 DUP1 CALLDATASIZE SUB DUP2 ADD SWAP1 PUSH2 0x7C SWAP2 SWAP1 PUSH2 0x5A3 JUMP JUMPDEST PUSH2 0x14E JUMP JUMPDEST PUSH1 0x40 MLOAD PUSH2 0x8F SWAP3 SWAP2 SWAP1 PUSH2 0x66F JUMP JUMPDEST PUSH1 0x40 MLOAD DUP1 SWAP2 SUB SWAP1 RETURN JUMPDEST PUSH2 0xB2 PUSH1 0x4 DUP1 CALLDATASIZE SUB DUP2 ADD SWAP1 PUSH2 0xAD SWAP2 SWAP1 PUSH2 0x80D JUMP JUMPDEST PUSH2 0x1FA JUMP JUMPDEST STOP JUMPDEST PUSH2 0xCE PUSH1 0x4 DUP1 CALLDATASIZE SUB DUP2 ADD SWAP1 PUSH2 0xC9 SWAP2 SWAP1 PUSH2 0x87C JUMP JUMPDEST PUSH2 0x32B JUMP JUMPDEST STOP JUMPDEST PUSH2 0xEA PUSH1 0x4 DUP1 CALLDATASIZE SUB DUP2 ADD SWAP1 PUSH2 0xE5 SWAP2 SWAP1 PUSH2 0x8C5 JUMP JUMPDEST PUSH2 0x3C4 JUMP JUMPDEST PUSH1 0x40 MLOAD PUSH2 0xF7 SWAP2 SWAP1 PUSH2 0x930 JUMP JUMPDEST PUSH1 0x40 MLOAD DUP1 SWAP2 SUB SWAP1 RETURN JUMPDEST PUSH2 0x11A PUSH1 0x4 DUP1 CALLDATASIZE SUB DUP2 ADD SWAP1 PUSH2 0x115 SWAP2 SWAP1 PUSH2 0x5A3 JUMP JUMPDEST PUSH2 0x45C JUMP JUMPDEST PUSH1 0x40 MLOAD PUSH2 0x127 SWAP2 SWAP1 PUSH2 0x94B JUMP JUMPDEST PUSH1 0x40 MLOAD DUP1 SWAP2 SUB SWAP1 RETURN JUMPDEST PUSH2 0x138 PUSH2 0x553 JUMP JUMPDEST PUSH1 0x40 MLOAD PUSH2 0x145 SWAP2 SWAP1 PUSH2 0x96D JUMP JUMPDEST PUSH1 0x40 MLOAD DUP1 SWAP2 SUB SWAP1 RETURN JUMPDEST PUSH1 0x0 PUSH1 0x20 MSTORE DUP1 PUSH1 0x0 MSTORE PUSH1 0x40 PUSH1 0x0 KECCAK256 PUSH1 0x0 SWAP2 POP SWAP1 POP DUP1 PUSH1 0x0 ADD SLOAD SWAP1 DUP1 PUSH1 0x1 ADD DUP1 SLOAD PUSH2 0x177 SWAP1 PUSH2 0x9B7 JUMP JUMPDEST DUP1 PUSH1 0x1F ADD PUSH1 0x20 DUP1 SWAP2 DIV MUL PUSH1 0x20 ADD PUSH1 0x40 MLOAD SWAP1 DUP2 ADD PUSH1 0x40 MSTORE DUP1 SWAP3 SWAP2 SWAP1 DUP2 DUP2 MSTORE PUSH1 0x20 ADD DUP3 DUP1 SLOAD PUSH2 0x1A3 SWAP1 PUSH2 0x9B7 JUMP JUMPDEST DUP1 ISZERO PUSH2 0x1F0 JUMPI DUP1 PUSH1 0x1F LT PUSH2 0x1C5 JUMPI PUSH2 0x100 DUP1 DUP4 SLOAD DIV MUL DUP4 MSTORE SWAP2 PUSH1 0x20 ADD SWAP2 PUSH2 0x1F0 JUMP JUMPDEST DUP3 ADD SWAP2 SWAP1 PUSH1 0x0 MSTORE PUSH1 0x20 PUSH1 0x0 KECCAK256 SWAP1 JUMPDEST DUP2 SLOAD DUP2 MSTORE SWAP1 PUSH1 0x1 ADD SWAP1 PUSH1 0x20 ADD DUP1 DUP4 GT PUSH2 0x1D3 JUMPI DUP3 SWAP1 SUB PUSH1 0x1F AND DUP3 ADD SWAP2 JUMPDEST POP POP POP POP POP SWAP1 POP DUP3 JUMP JUMPDEST PUSH1 0x0 DUP4 GT DUP1 ISZERO PUSH2 0x20B JUMPI POP PUSH1 0x1 SLOAD DUP4 LT JUMPDEST PUSH2 0x24A JUMPI PUSH1 0x40 MLOAD PUSH32 0x8C379A000000000000000000000000000000000000000000000000000000000 DUP2 MSTORE PUSH1 0x4 ADD PUSH2 0x241 SWAP1 PUSH2 0xA34 JUMP JUMPDEST PUSH1 0x40 MLOAD DUP1 SWAP2 SUB SWAP1 REVERT JUMPDEST PUSH1 0x0 DUP2 PUSH1 0xFF AND LT ISZERO DUP1 ISZERO PUSH2 0x262 JUMPI POP PUSH1 0x64 DUP2 PUSH1 0xFF AND GT ISZERO JUMPDEST PUSH2 0x2A1 JUMPI PUSH1 0x40 MLOAD PUSH32 0x8C379A000000000000000000000000000000000000000000000000000000000 DUP2 MSTORE PUSH1 0x4 ADD PUSH2 0x298 SWAP1 PUSH2 0xAA0 JUMP JUMPDEST PUSH1 0x40 MLOAD DUP1 SWAP2 SUB SWAP1 REVERT JUMPDEST DUP1 PUSH1 0x0 DUP1 DUP6 DUP2 MSTORE PUSH1 0x20 ADD SWAP1 DUP2 MSTORE PUSH1 0x20 ADD PUSH1 0x0 KECCAK256 PUSH1 0x2 ADD DUP4 PUSH1 0x40 MLOAD PUSH2 0x2C5 SWAP2 SWAP1 PUSH2 0xAFC JUMP JUMPDEST SWAP1 DUP2 MSTORE PUSH1 0x20 ADD PUSH1 0x40 MLOAD DUP1 SWAP2 SUB SWAP1 KECCAK256 PUSH1 0x0 PUSH2 0x100 EXP DUP2 SLOAD DUP2 PUSH1 0xFF MUL NOT AND SWAP1 DUP4 PUSH1 0xFF AND MUL OR SWAP1 SSTORE POP PUSH32 0xCEA5C96EAF97FEFC70E6769E20CD31F3B9F57CBAD0DA7E3476A1277421FFEDD2 DUP4 DUP4 DUP4 PUSH1 0x40 MLOAD PUSH2 0x31E SWAP4 SWAP3 SWAP2 SWAP1 PUSH2 0xB13 JUMP JUMPDEST PUSH1 0x40 MLOAD DUP1 SWAP2 SUB SWAP1 LOG1 POP POP POP JUMP JUMPDEST PUSH1 0x1 SLOAD PUSH1 0x0 DUP1 PUSH1 0x1 SLOAD DUP2 MSTORE PUSH1 0x20 ADD SWAP1 DUP2 MSTORE PUSH1 0x20 ADD PUSH1 0x0 KECCAK256 PUSH1 0x0 ADD DUP2 SWAP1 SSTORE POP DUP1 PUSH1 0x0 DUP1 PUSH1 0x1 SLOAD DUP2 MSTORE PUSH1 0x20 ADD SWAP1 DUP2 MSTORE PUSH1 0x20 ADD PUSH1 0x0 KECCAK256 PUSH1 0x1 ADD SWAP1 DUP2 PUSH2 0x36D SWAP2 SWAP1 PUSH2 0xCFD JUMP JUMPDEST POP PUSH32 0x9682C9A3E9734A1F8D3A641838A5D7862F4EB29FCBF4BD04E0CCAC28FFCFD227 PUSH1 0x1 SLOAD DUP3 PUSH1 0x40 MLOAD PUSH2 0x3A1 SWAP3 SWAP2 SWAP1 PUSH2 0x66F JUMP JUMPDEST PUSH1 0x40 MLOAD DUP1 SWAP2 SUB SWAP1 LOG1 PUSH1 0x1 PUSH1 0x0 DUP2 SLOAD DUP1 SWAP3 SWAP2 SWAP1 PUSH2 0x3BC SWAP1 PUSH2 0xDFE JUMP JUMPDEST SWAP2 SWAP1 POP SSTORE POP POP JUMP JUMPDEST PUSH1 0x0 DUP1 DUP4 GT DUP1 ISZERO PUSH2 0x3D6 JUMPI POP PUSH1 0x1 SLOAD DUP4 LT JUMPDEST PUSH2 0x415 JUMPI PUSH1 0x40 MLOAD PUSH32 0x8C379A000000000000000000000000000000000000000000000000000000000 DUP2 MSTORE PUSH1 0x4 ADD PUSH2 0x40C SWAP1 PUSH2 0xA34 JUMP JUMPDEST PUSH1 0x40 MLOAD DUP1 SWAP2 SUB SWAP1 REVERT JUMPDEST PUSH1 0x0 DUP1 DUP5 DUP2 MSTORE PUSH1 0x20 ADD SWAP1 DUP2 MSTORE PUSH1 0x20 ADD PUSH1 0x0 KECCAK256 PUSH1 0x2 ADD DUP3 PUSH1 0x40 MLOAD PUSH2 0x438 SWAP2 SWAP1 PUSH2 0xAFC JUMP JUMPDEST SWAP1 DUP2 MSTORE PUSH1 0x20 ADD PUSH1 0x40 MLOAD DUP1 SWAP2 SUB SWAP1 KECCAK256 PUSH1 0x0 SWAP1 SLOAD SWAP1 PUSH2 0x100 EXP SWAP1 DIV PUSH1 0xFF AND SWAP1 POP SWAP3 SWAP2 POP POP JUMP JUMPDEST PUSH1 0x60 PUSH1 0x0 DUP3 GT DUP1 ISZERO PUSH2 0x46F JUMPI POP PUSH1 0x1 SLOAD DUP3 LT JUMPDEST PUSH2 0x4AE JUMPI PUSH1 0x40 MLOAD PUSH32 0x8C379A000000000000000000000000000000000000000000000000000000000 DUP2 MSTORE PUSH1 0x4 ADD PUSH2 0x4A5 SWAP1 PUSH2 0xA34 JUMP JUMPDEST PUSH1 0x40 MLOAD DUP1 SWAP2 SUB SWAP1 REVERT JUMPDEST PUSH1 0x0 DUP1 DUP4 DUP2 MSTORE PUSH1 0x20 ADD SWAP1 DUP2 MSTORE PUSH1 0x20 ADD PUSH1 0x0 KECCAK256 PUSH1 0x1 ADD DUP1 SLOAD PUSH2 0x4CE SWAP1 PUSH2 0x9B7 JUMP JUMPDEST DUP1 PUSH1 0x1F ADD PUSH1 0x20 DUP1 SWAP2 DIV MUL PUSH1 0x20 ADD PUSH1 0x40 MLOAD SWAP1 DUP2 ADD PUSH1 0x40 MSTORE DUP1 SWAP3 SWAP2 SWAP1 DUP2 DUP2 MSTORE PUSH1 0x20 ADD DUP3 DUP1 SLOAD PUSH2 0x4FA SWAP1 PUSH2 0x9B7 JUMP JUMPDEST DUP1 ISZERO PUSH2 0x547 JUMPI DUP1 PUSH1 0x1F LT PUSH2 0x51C JUMPI PUSH2 0x100 DUP1 DUP4 SLOAD DIV MUL DUP4 MSTORE SWAP2 PUSH1 0x20 ADD SWAP2 PUSH2 0x547 JUMP JUMPDEST DUP3 ADD SWAP2 SWAP1 PUSH1 0x0 MSTORE PUSH1 0x20 PUSH1 0x0 KECCAK256 SWAP1 JUMPDEST DUP2 SLOAD DUP2 MSTORE SWAP1 PUSH1 0x1 ADD SWAP1 PUSH1 0x20 ADD DUP1 DUP4 GT PUSH2 0x52A JUMPI DUP3 SWAP1 SUB PUSH1 0x1F AND DUP3 ADD SWAP2 JUMPDEST POP POP POP POP POP SWAP1 POP SWAP2 SWAP1 POP JUMP JUMPDEST PUSH1 0x1 SLOAD DUP2 JUMP JUMPDEST PUSH1 0x0 PUSH1 0x40 MLOAD SWAP1 POP SWAP1 JUMP JUMPDEST PUSH1 0x0 DUP1 REVERT JUMPDEST PUSH1 0x0 DUP1 REVERT JUMPDEST PUSH1 0x0 DUP2 SWAP1 POP SWAP2 SWAP1 POP JUMP JUMPDEST PUSH2 0x580 DUP2 PUSH2 0x56D JUMP JUMPDEST DUP2 EQ PUSH2 0x58B JUMPI PUSH1 0x0 DUP1 REVERT JUMPDEST POP JUMP JUMPDEST PUSH1 0x0 DUP2 CALLDATALOAD SWAP1 POP PUSH2 0x59D DUP2 PUSH2 0x577 JUMP JUMPDEST SWAP3 SWAP2 POP POP JUMP JUMPDEST PUSH1 0x0 PUSH1 0x20 DUP3 DUP5 SUB SLT ISZERO PUSH2 0x5B9 JUMPI PUSH2 0x5B8 PUSH2 0x563 JUMP JUMPDEST JUMPDEST PUSH1 0x0 PUSH2 0x5C7 DUP5 DUP3 DUP6 ADD PUSH2 0x58E JUMP JUMPDEST SWAP2 POP POP SWAP3 SWAP2 POP POP JUMP JUMPDEST PUSH2 0x5D9 DUP2 PUSH2 0x56D JUMP JUMPDEST DUP3 MSTORE POP POP JUMP JUMPDEST PUSH1 0x0 DUP2 MLOAD SWAP1 POP SWAP2 SWAP1 POP JUMP JUMPDEST PUSH1 0x0 DUP3 DUP3 MSTORE PUSH1 0x20 DUP3 ADD SWAP1 POP SWAP3 SWAP2 POP POP JUMP JUMPDEST PUSH1 0x0 JUMPDEST DUP4 DUP2 LT ISZERO PUSH2 0x619 JUMPI DUP1 DUP3 ADD MLOAD DUP2 DUP5 ADD MSTORE PUSH1 0x20 DUP2 ADD SWAP1 POP PUSH2 0x5FE JUMP JUMPDEST PUSH1 0x0 DUP5 DUP5 ADD MSTORE POP POP POP POP JUMP JUMPDEST PUSH1 0x0 PUSH1 0x1F NOT PUSH1 0x1F DUP4 ADD AND SWAP1 POP SWAP2 SWAP1 POP JUMP JUMPDEST PUSH1 0x0 PUSH2 0x641 DUP3 PUSH2 0x5DF JUMP JUMPDEST PUSH2 0x64B DUP2 DUP6 PUSH2 0x5EA JUMP JUMPDEST SWAP4 POP PUSH2 0x65B DUP2 DUP6 PUSH1 0x20 DUP7 ADD PUSH2 0x5FB JUMP JUMPDEST PUSH2 0x664 DUP2 PUSH2 0x625 JUMP JUMPDEST DUP5 ADD SWAP2 POP POP SWAP3 SWAP2 POP POP JUMP JUMPDEST PUSH1 0x0 PUSH1 0x40 DUP3 ADD SWAP1 POP PUSH2 0x684 PUSH1 0x0 DUP4 ADD DUP6 PUSH2 0x5D0 JUMP JUMPDEST DUP2 DUP2 SUB PUSH1 0x20 DUP4 ADD MSTORE PUSH2 0x696 DUP2 DUP5 PUSH2 0x636 JUMP JUMPDEST SWAP1 POP SWAP4 SWAP3 POP POP POP JUMP JUMPDEST PUSH1 0x0 DUP1 REVERT JUMPDEST PUSH1 0x0 DUP1 REVERT JUMPDEST PUSH32 0x4E487B7100000000000000000000000000000000000000000000000000000000 PUSH1 0x0 MSTORE PUSH1 0x41 PUSH1 0x4 MSTORE PUSH1 0x24 PUSH1 0x0 REVERT JUMPDEST PUSH2 0x6E1 DUP3 PUSH2 0x625 JUMP JUMPDEST DUP2 ADD DUP2 DUP2 LT PUSH8 0xFFFFFFFFFFFFFFFF DUP3 GT OR ISZERO PUSH2 0x700 JUMPI PUSH2 0x6FF PUSH2 0x6A9 JUMP JUMPDEST JUMPDEST DUP1 PUSH1 0x40 MSTORE POP POP POP JUMP JUMPDEST PUSH1 0x0 PUSH2 0x713 PUSH2 0x559 JUMP JUMPDEST SWAP1 POP PUSH2 0x71F DUP3 DUP3 PUSH2 0x6D8 JUMP JUMPDEST SWAP2 SWAP1 POP JUMP JUMPDEST PUSH1 0x0 PUSH8 0xFFFFFFFFFFFFFFFF DUP3 GT ISZERO PUSH2 0x73F JUMPI PUSH2 0x73E PUSH2 0x6A9 JUMP JUMPDEST JUMPDEST PUSH2 0x748 DUP3 PUSH2 0x625 JUMP JUMPDEST SWAP1 POP PUSH1 0x20 DUP2 ADD SWAP1 POP SWAP2 SWAP1 POP JUMP JUMPDEST DUP3 DUP2 DUP4 CALLDATACOPY PUSH1 0x0 DUP4 DUP4 ADD MSTORE POP POP POP JUMP JUMPDEST PUSH1 0x0 PUSH2 0x777 PUSH2 0x772 DUP5 PUSH2 0x724 JUMP JUMPDEST PUSH2 0x709 JUMP JUMPDEST SWAP1 POP DUP3 DUP2 MSTORE PUSH1 0x20 DUP2 ADD DUP5 DUP5 DUP5 ADD GT ISZERO PUSH2 0x793 JUMPI PUSH2 0x792 PUSH2 0x6A4 JUMP JUMPDEST JUMPDEST PUSH2 0x79E DUP5 DUP3 DUP6 PUSH2 0x755 JUMP JUMPDEST POP SWAP4 SWAP3 POP POP POP JUMP JUMPDEST PUSH1 0x0 DUP3 PUSH1 0x1F DUP4 ADD SLT PUSH2 0x7BB JUMPI PUSH2 0x7BA PUSH2 0x69F JUMP JUMPDEST JUMPDEST DUP2 CALLDATALOAD PUSH2 0x7CB DUP5 DUP3 PUSH1 0x20 DUP7 ADD PUSH2 0x764 JUMP JUMPDEST SWAP2 POP POP SWAP3 SWAP2 POP POP JUMP JUMPDEST PUSH1 0x0 PUSH1 0xFF DUP3 AND SWAP1 POP SWAP2 SWAP1 POP JUMP JUMPDEST PUSH2 0x7EA DUP2 PUSH2 0x7D4 JUMP JUMPDEST DUP2 EQ PUSH2 0x7F5 JUMPI PUSH1 0x0 DUP1 REVERT JUMPDEST POP JUMP JUMPDEST PUSH1 0x0 DUP2 CALLDATALOAD SWAP1 POP PUSH2 0x807 DUP2 PUSH2 0x7E1 JUMP JUMPDEST SWAP3 SWAP2 POP POP JUMP JUMPDEST PUSH1 0x0 DUP1 PUSH1 0x0 PUSH1 0x60 DUP5 DUP7 SUB SLT ISZERO PUSH2 0x826 JUMPI PUSH2 0x825 PUSH2 0x563 JUMP JUMPDEST JUMPDEST PUSH1 0x0 PUSH2 0x834 DUP7 DUP3 DUP8 ADD PUSH2 0x58E JUMP JUMPDEST SWAP4 POP POP PUSH1 0x20 DUP5 ADD CALLDATALOAD PUSH8 0xFFFFFFFFFFFFFFFF DUP2 GT ISZERO PUSH2 0x855 JUMPI PUSH2 0x854 PUSH2 0x568 JUMP JUMPDEST JUMPDEST PUSH2 0x861 DUP7 DUP3 DUP8 ADD PUSH2 0x7A6 JUMP JUMPDEST SWAP3 POP POP PUSH1 0x40 PUSH2 0x872 DUP7 DUP3 DUP8 ADD PUSH2 0x7F8 JUMP JUMPDEST SWAP2 POP POP SWAP3 POP SWAP3 POP SWAP3 JUMP JUMPDEST PUSH1 0x0 PUSH1 0x20 DUP3 DUP5 SUB SLT ISZERO PUSH2 0x892 JUMPI PUSH2 0x891 PUSH2 0x563 JUMP JUMPDEST JUMPDEST PUSH1 0x0 DUP3 ADD CALLDATALOAD PUSH8 0xFFFFFFFFFFFFFFFF DUP2 GT ISZERO PUSH2 0x8B0 JUMPI PUSH2 0x8AF PUSH2 0x568 JUMP JUMPDEST JUMPDEST PUSH2 0x8BC DUP5 DUP3 DUP6 ADD PUSH2 0x7A6 JUMP JUMPDEST SWAP2 POP POP SWAP3 SWAP2 POP POP JUMP JUMPDEST PUSH1 0x0 DUP1 PUSH1 0x40 DUP4 DUP6 SUB SLT ISZERO PUSH2 0x8DC JUMPI PUSH2 0x8DB PUSH2 0x563 JUMP JUMPDEST JUMPDEST PUSH1 0x0 PUSH2 0x8EA DUP6 DUP3 DUP7 ADD PUSH2 0x58E JUMP JUMPDEST SWAP3 POP POP PUSH1 0x20 DUP4 ADD CALLDATALOAD PUSH8 0xFFFFFFFFFFFFFFFF DUP2 GT ISZERO PUSH2 0x90B JUMPI PUSH2 0x90A PUSH2 0x568 JUMP JUMPDEST JUMPDEST PUSH2 0x917 DUP6 DUP3 DUP7 ADD PUSH2 0x7A6 JUMP JUMPDEST SWAP2 POP POP SWAP3 POP SWAP3 SWAP1 POP JUMP JUMPDEST PUSH2 0x92A DUP2 PUSH2 0x7D4 JUMP JUMPDEST DUP3 MSTORE POP POP JUMP JUMPDEST PUSH1 0x0 PUSH1 0x20 DUP3 ADD SWAP1 POP PUSH2 0x945 PUSH1 0x0 DUP4 ADD DUP5 PUSH2 0x921 JUMP JUMPDEST SWAP3 SWAP2 POP POP JUMP JUMPDEST PUSH1 0x0 PUSH1 0x20 DUP3 ADD SWAP1 POP DUP2 DUP2 SUB PUSH1 0x0 DUP4 ADD MSTORE PUSH2 0x965 DUP2 DUP5 PUSH2 0x636 JUMP JUMPDEST SWAP1 POP SWAP3 SWAP2 POP POP JUMP JUMPDEST PUSH1 0x0 PUSH1 0x20 DUP3 ADD SWAP1 POP PUSH2 0x982 PUSH1 0x0 DUP4 ADD DUP5 PUSH2 0x5D0 JUMP JUMPDEST SWAP3 SWAP2 POP POP JUMP JUMPDEST PUSH32 0x4E487B7100000000000000000000000000000000000000000000000000000000 PUSH1 0x0 MSTORE PUSH1 0x22 PUSH1 0x4 MSTORE PUSH1 0x24 PUSH1 0x0 REVERT JUMPDEST PUSH1 0x0 PUSH1 0x2 DUP3 DIV SWAP1 POP PUSH1 0x1 DUP3 AND DUP1 PUSH2 0x9CF JUMPI PUSH1 0x7F DUP3 AND SWAP2 POP JUMPDEST PUSH1 0x20 DUP3 LT DUP2 SUB PUSH2 0x9E2 JUMPI PUSH2 0x9E1 PUSH2 0x988 JUMP JUMPDEST JUMPDEST POP SWAP2 SWAP1 POP JUMP JUMPDEST PUSH32 0x496E76616C69642073747564656E742049440000000000000000000000000000 PUSH1 0x0 DUP3 ADD MSTORE POP JUMP JUMPDEST PUSH1 0x0 PUSH2 0xA1E PUSH1 0x12 DUP4 PUSH2 0x5EA JUMP JUMPDEST SWAP2 POP PUSH2 0xA29 DUP3 PUSH2 0x9E8 JUMP JUMPDEST PUSH1 0x20 DUP3 ADD SWAP1 POP SWAP2 SWAP1 POP JUMP JUMPDEST PUSH1 0x0 PUSH1 0x20 DUP3 ADD SWAP1 POP DUP2 DUP2 SUB PUSH1 0x0 DUP4 ADD MSTORE PUSH2 0xA4D DUP2 PUSH2 0xA11 JUMP JUMPDEST SWAP1 POP SWAP2 SWAP1 POP JUMP JUMPDEST PUSH32 0x496E76616C696420677261646500000000000000000000000000000000000000 PUSH1 0x0 DUP3 ADD MSTORE POP JUMP JUMPDEST PUSH1 0x0 PUSH2 0xA8A PUSH1 0xD DUP4 PUSH2 0x5EA JUMP JUMPDEST SWAP2 POP PUSH2 0xA95 DUP3 PUSH2 0xA54 JUMP JUMPDEST PUSH1 0x20 DUP3 ADD SWAP1 POP SWAP2 SWAP1 POP JUMP JUMPDEST PUSH1 0x0 PUSH1 0x20 DUP3 ADD SWAP1 POP DUP2 DUP2 SUB PUSH1 0x0 DUP4 ADD MSTORE PUSH2 0xAB9 DUP2 PUSH2 0xA7D JUMP JUMPDEST SWAP1 POP SWAP2 SWAP1 POP JUMP JUMPDEST PUSH1 0x0 DUP2 SWAP1 POP SWAP3 SWAP2 POP POP JUMP JUMPDEST PUSH1 0x0 PUSH2 0xAD6 DUP3 PUSH2 0x5DF JUMP JUMPDEST PUSH2 0xAE0 DUP2 DUP6 PUSH2 0xAC0 JUMP JUMPDEST SWAP4 POP PUSH2 0xAF0 DUP2 DUP6 PUSH1 0x20 DUP7 ADD PUSH2 0x5FB JUMP JUMPDEST DUP1 DUP5 ADD SWAP2 POP POP SWAP3 SWAP2 POP POP JUMP JUMPDEST PUSH1 0x0 PUSH2 0xB08 DUP3 DUP5 PUSH2 0xACB JUMP JUMPDEST SWAP2 POP DUP2 SWAP1 POP SWAP3 SWAP2 POP POP JUMP JUMPDEST PUSH1 0x0 PUSH1 0x60 DUP3 ADD SWAP1 POP PUSH2 0xB28 PUSH1 0x0 DUP4 ADD DUP7 PUSH2 0x5D0 JUMP JUMPDEST DUP2 DUP2 SUB PUSH1 0x20 DUP4 ADD MSTORE PUSH2 0xB3A DUP2 DUP6 PUSH2 0x636 JUMP JUMPDEST SWAP1 POP PUSH2 0xB49 PUSH1 0x40 DUP4 ADD DUP5 PUSH2 0x921 JUMP JUMPDEST SWAP5 SWAP4 POP POP POP POP JUMP JUMPDEST PUSH1 0x0 DUP2 SWAP1 POP DUP2 PUSH1 0x0 MSTORE PUSH1 0x20 PUSH1 0x0 KECCAK256 SWAP1 POP SWAP2 SWAP1 POP JUMP JUMPDEST PUSH1 0x0 PUSH1 0x20 PUSH1 0x1F DUP4 ADD DIV SWAP1 POP SWAP2 SWAP1 POP JUMP JUMPDEST PUSH1 0x0 DUP3 DUP3 SHL SWAP1 POP SWAP3 SWAP2 POP POP JUMP JUMPDEST PUSH1 0x0 PUSH1 0x8 DUP4 MUL PUSH2 0xBB3 PUSH32 0xFFFFFFFFFFFFFFFFFFFFFFFFFFFFFFFFFFFFFFFFFFFFFFFFFFFFFFFFFFFFFFFF DUP3 PUSH2 0xB76 JUMP JUMPDEST PUSH2 0xBBD DUP7 DUP4 PUSH2 0xB76 JUMP JUMPDEST SWAP6 POP DUP1 NOT DUP5 AND SWAP4 POP DUP1 DUP7 AND DUP5 OR SWAP3 POP POP POP SWAP4 SWAP3 POP POP POP JUMP JUMPDEST PUSH1 0x0 DUP2 SWAP1 POP SWAP2 SWAP1 POP JUMP JUMPDEST PUSH1 0x0 PUSH2 0xBFA PUSH2 0xBF5 PUSH2 0xBF0 DUP5 PUSH2 0x56D JUMP JUMPDEST PUSH2 0xBD5 JUMP JUMPDEST PUSH2 0x56D JUMP JUMPDEST SWAP1 POP SWAP2 SWAP1 POP JUMP JUMPDEST PUSH1 0x0 DUP2 SWAP1 POP SWAP2 SWAP1 POP JUMP JUMPDEST PUSH2 0xC14 DUP4 PUSH2 0xBDF JUMP JUMPDEST PUSH2 0xC28 PUSH2 0xC20 DUP3 PUSH2 0xC01 JUMP JUMPDEST DUP5 DUP5 SLOAD PUSH2 0xB83 JUMP JUMPDEST DUP3 SSTORE POP POP POP POP JUMP JUMPDEST PUSH1 0x0 SWAP1 JUMP JUMPDEST PUSH2 0xC3D PUSH2 0xC30 JUMP JUMPDEST PUSH2 0xC48 DUP2 DUP5 DUP5 PUSH2 0xC0B JUMP JUMPDEST POP POP POP JUMP JUMPDEST JUMPDEST DUP2 DUP2 LT ISZERO PUSH2 0xC6C JUMPI PUSH2 0xC61 PUSH1 0x0 DUP3 PUSH2 0xC35 JUMP JUMPDEST PUSH1 0x1 DUP2 ADD SWAP1 POP PUSH2 0xC4E JUMP JUMPDEST POP POP JUMP JUMPDEST PUSH1 0x1F DUP3 GT ISZERO PUSH2 0xCB1 JUMPI PUSH2 0xC82 DUP2 PUSH2 0xB51 JUMP JUMPDEST PUSH2 0xC8B DUP5 PUSH2 0xB66 JUMP JUMPDEST DUP2 ADD PUSH1 0x20 DUP6 LT ISZERO PUSH2 0xC9A JUMPI DUP2 SWAP1 POP JUMPDEST PUSH2 0xCAE PUSH2 0xCA6 DUP6 PUSH2 0xB66 JUMP JUMPDEST DUP4 ADD DUP3 PUSH2 0xC4D JUMP JUMPDEST POP POP JUMPDEST POP POP POP JUMP JUMPDEST PUSH1 0x0 DUP3 DUP3 SHR SWAP1 POP SWAP3 SWAP2 POP POP JUMP JUMPDEST PUSH1 0x0 PUSH2 0xCD4 PUSH1 0x0 NOT DUP5 PUSH1 0x8 MUL PUSH2 0xCB6 JUMP JUMPDEST NOT DUP1 DUP4 AND SWAP2 POP POP SWAP3 SWAP2 POP POP JUMP JUMPDEST PUSH1 0x0 PUSH2 0xCED DUP4 DUP4 PUSH2 0xCC3 JUMP JUMPDEST SWAP2 POP DUP3 PUSH1 0x2 MUL DUP3 OR SWAP1 POP SWAP3 SWAP2 POP POP JUMP JUMPDEST PUSH2 0xD06 DUP3 PUSH2 0x5DF JUMP JUMPDEST PUSH8 0xFFFFFFFFFFFFFFFF DUP2 GT ISZERO PUSH2 0xD1F JUMPI PUSH2 0xD1E PUSH2 0x6A9 JUMP JUMPDEST JUMPDEST PUSH2 0xD29 DUP3 SLOAD PUSH2 0x9B7 JUMP JUMPDEST PUSH2 0xD34 DUP3 DUP3 DUP6 PUSH2 0xC70 JUMP JUMPDEST PUSH1 0x0 PUSH1 0x20 SWAP1 POP PUSH1 0x1F DUP4 GT PUSH1 0x1 DUP2 EQ PUSH2 0xD67 JUMPI PUSH1 0x0 DUP5 ISZERO PUSH2 0xD55 JUMPI DUP3 DUP8 ADD MLOAD SWAP1 POP JUMPDEST PUSH2 0xD5F DUP6 DUP3 PUSH2 0xCE1 JUMP JUMPDEST DUP7 SSTORE POP PUSH2 0xDC7 JUMP JUMPDEST PUSH1 0x1F NOT DUP5 AND PUSH2 0xD75 DUP7 PUSH2 0xB51 JUMP JUMPDEST PUSH1 0x0 JUMPDEST DUP3 DUP2 LT ISZERO PUSH2 0xD9D JUMPI DUP5 DUP10 ADD MLOAD DUP3 SSTORE PUSH1 0x1 DUP3 ADD SWAP2 POP PUSH1 0x20 DUP6 ADD SWAP5 POP PUSH1 0x20 DUP2 ADD SWAP1 POP PUSH2 0xD78 JUMP JUMPDEST DUP7 DUP4 LT ISZERO PUSH2 0xDBA JUMPI DUP5 DUP10 ADD MLOAD PUSH2 0xDB6 PUSH1 0x1F DUP10 AND DUP3 PUSH2 0xCC3 JUMP JUMPDEST DUP4 SSTORE POP JUMPDEST PUSH1 0x1 PUSH1 0x2 DUP9 MUL ADD DUP9 SSTORE POP POP POP JUMPDEST POP POP POP POP POP POP JUMP JUMPDEST PUSH32 0x4E487B7100000000000000000000000000000000000000000000000000000000 PUSH1 0x0 MSTORE PUSH1 0x11 PUSH1 0x4 MSTORE PUSH1 0x24 PUSH1 0x0 REVERT JUMPDEST PUSH1 0x0 PUSH2 0xE09 DUP3 PUSH2 0x56D JUMP JUMPDEST SWAP2 POP PUSH32 0xFFFFFFFFFFFFFFFFFFFFFFFFFFFFFFFFFFFFFFFFFFFFFFFFFFFFFFFFFFFFFFFF DUP3 SUB PUSH2 0xE3B JUMPI PUSH2 0xE3A PUSH2 0xDCF JUMP JUMPDEST JUMPDEST PUSH1 0x1 DUP3 ADD SWAP1 POP SWAP2 SWAP1 POP JUMP INVALID LOG2 PUSH5 0x6970667358 0x22 SLT KECCAK256 0x29 DUP8 0xA7 DUP10 SWAP8 ADD XOR 0xD9 0xBA JUMP 0xD0 CREATE2 0xB1 REVERT SLT MOD 0xF9 0xD8 0xD1 PUSH1 0x2 0xBD RETURNDATASIZE 0xB0 SWAP12 MUL JUMPI 0xEC CALLDATASIZE LT 0xE6 0xA6 PUSH5 0x736F6C6343 STOP ADDMOD GT STOP CALLER "},"methodIdentifiers":{"addStudent(string)":"453e056a","assignGrade(uint256,string,uint8)":"41caac4d","getGrade(uint256,string)":"50abc9ea","getStudentName(uint256)":"9ac43876","nextStudentId()":"a8ca251b","students(uint256)":"06ead22e"}}}}}